{
  "contractName": "LeaveTool",
  "abi": [
    {
      "constant": true,
      "inputs": [
        {
          "name": "",
          "type": "uint256"
        }
      ],
      "name": "employees",
      "outputs": [
        {
          "name": "id",
          "type": "uint256"
        },
        {
          "name": "username",
          "type": "string"
        },
        {
          "name": "fullname",
          "type": "string"
        },
        {
          "name": "location",
          "type": "string"
        },
        {
          "name": "leaveTotal",
          "type": "uint8"
        },
        {
          "name": "accountAddress",
          "type": "address"
        }
      ],
      "payable": false,
      "stateMutability": "view",
      "type": "function"
    },
    {
      "constant": true,
      "inputs": [],
      "name": "owner",
      "outputs": [
        {
          "name": "",
          "type": "address"
        }
      ],
      "payable": false,
      "stateMutability": "view",
      "type": "function"
    },
    {
      "constant": true,
      "inputs": [],
      "name": "employeeCount",
      "outputs": [
        {
          "name": "",
          "type": "uint256"
        }
      ],
      "payable": false,
      "stateMutability": "view",
      "type": "function"
    },
    {
      "constant": true,
      "inputs": [
        {
          "name": "",
          "type": "address"
        }
      ],
      "name": "managers",
      "outputs": [
        {
          "name": "",
          "type": "uint8"
        }
      ],
      "payable": false,
      "stateMutability": "view",
      "type": "function"
    },
    {
      "inputs": [],
      "payable": false,
      "stateMutability": "nonpayable",
      "type": "constructor"
    },
    {
      "constant": false,
      "inputs": [
        {
          "name": "_power",
          "type": "uint8"
        }
      ],
      "name": "setPower",
      "outputs": [],
      "payable": false,
      "stateMutability": "nonpayable",
      "type": "function"
    },
    {
      "constant": false,
      "inputs": [
        {
          "name": "_leaveAmount",
          "type": "uint8"
        }
      ],
      "name": "setAllEmployeeLeave",
      "outputs": [],
      "payable": false,
      "stateMutability": "nonpayable",
      "type": "function"
    },
    {
      "constant": false,
      "inputs": [
        {
          "name": "_id",
          "type": "uint256"
        },
        {
          "name": "_address",
          "type": "address"
        }
      ],
      "name": "setEmployeeAddress",
      "outputs": [],
      "payable": false,
      "stateMutability": "nonpayable",
      "type": "function"
    },
    {
      "constant": false,
      "inputs": [
        {
          "name": "_id",
          "type": "uint256"
        },
        {
          "name": "_leaveAmount",
          "type": "uint8"
        }
      ],
      "name": "setEmployeeLeave",
      "outputs": [],
      "payable": false,
      "stateMutability": "nonpayable",
      "type": "function"
    },
    {
      "constant": true,
      "inputs": [
        {
          "name": "_id",
          "type": "uint256"
        }
      ],
      "name": "getEmployeeAddress",
      "outputs": [
        {
          "name": "",
          "type": "address"
        }
      ],
      "payable": false,
      "stateMutability": "view",
      "type": "function"
    },
    {
      "constant": false,
      "inputs": [
        {
          "name": "_id",
          "type": "uint256"
        },
        {
          "name": "_decreaseAmount",
          "type": "uint8"
        }
      ],
      "name": "decreaseEmployeeLeave",
      "outputs": [],
      "payable": false,
      "stateMutability": "nonpayable",
      "type": "function"
    }
  ],
  "bytecode": "0x608060405234801561001057600080fd5b50336000806101000a81548173ffffffffffffffffffffffffffffffffffffffff021916908373ffffffffffffffffffffffffffffffffffffffff160217905550600a600060146101000a81548160ff021916908360ff16021790555061011d6040518060400160405280600881526020017f6a6f7963626576610000000000000000000000000000000000000000000000008152506040518060400160405280600b81526020017f426576616e204a6f7963650000000000000000000000000000000000000000008152506040518060400160405280600381526020017f435054000000000000000000000000000000000000000000000000000000000081525061012260201b60201c565b610309565b6003600081548092919060010191905055506040518060c001604052806003548152602001848152602001838152602001828152602001600060ff168152602001600173ffffffffffffffffffffffffffffffffffffffff168152506001600060035481526020019081526020016000206000820151816000015560208201518160010190805190602001906101b9929190610264565b5060408201518160020190805190602001906101d6929190610264565b5060608201518160030190805190602001906101f3929190610264565b5060808201518160040160006101000a81548160ff021916908360ff16021790555060a08201518160040160016101000a81548173ffffffffffffffffffffffffffffffffffffffff021916908373ffffffffffffffffffffffffffffffffffffffff160217905550905050505050565b828054600181600116156101000203166002900490600052602060002090601f016020900481019282601f106102a557805160ff19168380011785556102d3565b828001600101855582156102d3579182015b828111156102d25782518255916020019190600101906102b7565b5b5090506102e091906102e4565b5090565b61030691905b808211156103025760008160009055506001016102ea565b5090565b90565b610c0a80620003196000396000f3fe608060405234801561001057600080fd5b506004361061009e5760003560e01c80638da5cb5b116100665780638da5cb5b146103745780638ee0199f146103be5780639047bf581461040c57806392f1b56e1461042a578063fdff9b4d146104655761009e565b80634739326b146100a357806349d66eac146102695780635c22b6b61461029a57806365cac068146102cb5780636e37b5a514610306575b600080fd5b6100cf600480360360208110156100b957600080fd5b81019080803590602001909291905050506104c3565b604051808781526020018060200180602001806020018660ff1660ff1681526020018573ffffffffffffffffffffffffffffffffffffffff1673ffffffffffffffffffffffffffffffffffffffff168152602001848103845289818151815260200191508051906020019080838360005b8381101561015b578082015181840152602081019050610140565b50505050905090810190601f1680156101885780820380516001836020036101000a031916815260200191505b50848103835288818151815260200191508051906020019080838360005b838110156101c15780820151818401526020810190506101a6565b50505050905090810190601f1680156101ee5780820380516001836020036101000a031916815260200191505b50848103825287818151815260200191508051906020019080838360005b8381101561022757808201518184015260208101905061020c565b50505050905090810190601f1680156102545780820380516001836020036101000a031916815260200191505b50995050505050505050505060405180910390f35b6102986004803603602081101561027f57600080fd5b81019080803560ff1690602001909291905050506106f4565b005b6102c9600480360360208110156102b057600080fd5b81019080803560ff169060200190929190505050610815565b005b610304600480360360408110156102e157600080fd5b8101908080359060200190929190803560ff1690602001909291905050506108f5565b005b6103326004803603602081101561031c57600080fd5b8101908080359060200190929190505050610984565b604051808273ffffffffffffffffffffffffffffffffffffffff1673ffffffffffffffffffffffffffffffffffffffff16815260200191505060405180910390f35b61037c6109c4565b604051808273ffffffffffffffffffffffffffffffffffffffff1673ffffffffffffffffffffffffffffffffffffffff16815260200191505060405180910390f35b61040a600480360360408110156103d457600080fd5b8101908080359060200190929190803573ffffffffffffffffffffffffffffffffffffffff1690602001909291905050506109e9565b005b610414610a9e565b6040518082815260200191505060405180910390f35b6104636004803603604081101561044057600080fd5b8101908080359060200190929190803560ff169060200190929190505050610aa4565b005b6104a76004803603602081101561047b57600080fd5b81019080803573ffffffffffffffffffffffffffffffffffffffff169060200190929190505050610ba1565b604051808260ff1660ff16815260200191505060405180910390f35b6001602052806000526040600020600091509050806000015490806001018054600181600116156101000203166002900480601f0160208091040260200160405190810160405280929190818152602001828054600181600116156101000203166002900480156105755780601f1061054a57610100808354040283529160200191610575565b820191906000526020600020905b81548152906001019060200180831161055857829003601f168201915b505050505090806002018054600181600116156101000203166002900480601f0160208091040260200160405190810160405280929190818152602001828054600181600116156101000203166002900480156106135780601f106105e857610100808354040283529160200191610613565b820191906000526020600020905b8154815290600101906020018083116105f657829003601f168201915b505050505090806003018054600181600116156101000203166002900480601f0160208091040260200160405190810160405280929190818152602001828054600181600116156101000203166002900480156106b15780601f10610686576101008083540402835291602001916106b1565b820191906000526020600020905b81548152906001019060200180831161069457829003601f168201915b5050505050908060040160009054906101000a900460ff16908060040160019054906101000a900473ffffffffffffffffffffffffffffffffffffffff16905086565b6000809054906101000a900473ffffffffffffffffffffffffffffffffffffffff1673ffffffffffffffffffffffffffffffffffffffff163373ffffffffffffffffffffffffffffffffffffffff16146107b6576040517f08c379a000000000000000000000000000000000000000000000000000000000815260040180806020018281038252600c8152602001807f556e617574686f72697a6564000000000000000000000000000000000000000081525060200191505060405180910390fd5b6000600354116107c557600080fd5b6000600190505b600354811161081157816001600083815260200190815260200160002060040160006101000a81548160ff021916908360ff16021790555080806001019150506107cc565b5050565b6000809054906101000a900473ffffffffffffffffffffffffffffffffffffffff1673ffffffffffffffffffffffffffffffffffffffff163373ffffffffffffffffffffffffffffffffffffffff16146108d7576040517f08c379a000000000000000000000000000000000000000000000000000000000815260040180806020018281038252600c8152602001807f556e617574686f72697a6564000000000000000000000000000000000000000081525060200191505060405180910390fd5b80600060146101000a81548160ff021916908360ff16021790555050565b6001600260003373ffffffffffffffffffffffffffffffffffffffff1673ffffffffffffffffffffffffffffffffffffffff16815260200190815260200160002060009054906101000a900460ff1660ff161461095157600080fd5b806001600084815260200190815260200160002060040160006101000a81548160ff021916908360ff1602179055505050565b60006001600083815260200190815260200160002060040160019054906101000a900473ffffffffffffffffffffffffffffffffffffffff169050919050565b6000809054906101000a900473ffffffffffffffffffffffffffffffffffffffff1681565b6001600260003373ffffffffffffffffffffffffffffffffffffffff1673ffffffffffffffffffffffffffffffffffffffff16815260200190815260200160002060009054906101000a900460ff1660ff1614610a4557600080fd5b806001600084815260200190815260200160002060040160016101000a81548173ffffffffffffffffffffffffffffffffffffffff021916908373ffffffffffffffffffffffffffffffffffffffff1602179055505050565b60035481565b6001600260003373ffffffffffffffffffffffffffffffffffffffff1673ffffffffffffffffffffffffffffffffffffffff16815260200190815260200160002060009054906101000a900460ff1660ff1614610b0057600080fd5b8060ff166001600084815260200190815260200160002060040160009054906101000a900460ff1660ff161015610b3657600080fd5b610b6f816001600085815260200190815260200160002060040160009054906101000a900460ff1660ff16610bc190919063ffffffff16565b6001600084815260200190815260200160002060040160006101000a81548160ff021916908360ff1602179055505050565b60026020528060005260406000206000915054906101000a900460ff1681565b60008260ff168260ff161115610bd357fe5b81830390509291505056fea165627a7a72305820d6133a582fc25c7739a73c5cb138de017f25247349a547fbcbe3919594ad21c00029",
  "source": "pragma solidity ^0.5.8;\r\n//Practice safe math\r\nimport \"./SafeMath.sol\";\r\nimport \"./SafeMath8.sol\";\r\n\r\n//TODO - Implement Proxy contract once all functionality is implemented\r\ncontract LeaveTool {\r\n\r\n\tusing SafeMath8 for uint8;\r\n\tusing SafeMath for uint256;\r\n\taddress public owner;\r\n\r\n\tuint8 power;\r\n\t// Employee model\r\n\tstruct Employee {\r\n\t\t//Look at using keccak256 hash instead of uint\r\n\t\tuint id;\r\n\t\tstring username;\r\n\t\tstring fullname;\r\n\t\tstring location;\r\n\t\tuint8 leaveTotal;\r\n\t\taddress accountAddress;\r\n\t}\r\n\r\n\t// Read/Write Employees\r\n\tmapping(uint => Employee) public employees;\r\n\tmapping(address => uint8) public managers;\r\n\t//mapping(address => uint) private employeeAddress;\r\n\r\n\t//Employee count\r\n\tuint public employeeCount;\r\n\r\n\r\n\tmodifier onlyOwner {\r\n\t\trequire(msg.sender == owner, \"Unauthorized\");\r\n\t\t_;\r\n\t}\r\n\r\n\tmodifier onlyManager {\r\n\t\trequire(managers[msg.sender] == 1);\r\n\t\t_;\r\n\t}\r\n\r\n\tconstructor () public {\r\n\t\towner = msg.sender;\r\n\t\tpower = 10;\r\n\r\n\t\taddEmployee(\"joycbeva\", \"Bevan Joyce\", \"CPT\");\r\n\t}\r\n\r\n\tfunction setPower(uint8 _power) public onlyOwner {\r\n\t\tpower = _power;\r\n\t}\r\n\r\n\t//Can only be performed by the owner of the contract\r\n\tfunction setAllEmployeeLeave(uint8 _leaveAmount) public onlyOwner {\r\n\t\trequire(employeeCount > 0);\r\n\r\n\t\tfor(uint i=1; i <= employeeCount; i++){\r\n\t\t\temployees[i].leaveTotal = _leaveAmount;\r\n\t\t}\r\n\t}\r\n\r\n\tfunction setEmployeeAddress(uint _id, address _address) public onlyManager {\r\n\t\temployees[_id].accountAddress = _address;\r\n\t}\r\n\r\n\tfunction setEmployeeLeave(uint _id, uint8 _leaveAmount) public onlyManager {\r\n\t\temployees[_id].leaveTotal = _leaveAmount;\r\n\t}\r\n\r\n\tfunction getEmployeeAddress(uint _id) public view returns (address) {\r\n\t\t//Do some validation so it's not public\r\n\t\treturn employees[_id].accountAddress;\r\n\t}\r\n\r\n\tfunction decreaseEmployeeLeave(uint _id, uint8 _decreaseAmount) public onlyManager {\r\n\t\trequire(employees[_id].leaveTotal >= _decreaseAmount);\r\n\r\n\t\temployees[_id].leaveTotal = employees[_id].leaveTotal.sub(_decreaseAmount);\r\n\t}\r\n\r\n\tfunction addEmployee (string memory _username, string memory _fullname, string memory _location) private {\r\n\t\temployeeCount++;\r\n\t\temployees[employeeCount] = Employee(employeeCount, _username, _fullname, _location, 0, address(0x1));\r\n\t}\r\n}",
  "sourcePath": "C:/Users/bevan/Desktop/eth/leavetool/contracts/LeaveTool.sol",
  "compiler": {
    "name": "solc",
    "version": "0.5.8+commit.23d335f2.Emscripten.clang"
  },
  "schemaVersion": "3.0.16",
  "updatedAt": "2019-10-12T05:05:46.763Z",
  "devdoc": {
    "methods": {}
  },
  "userdoc": {
    "methods": {}
  }
}