{
  "contractName": "LeaveTool",
  "abi": [
    {
      "constant": true,
      "inputs": [
        {
          "name": "",
          "type": "uint256"
        }
      ],
      "name": "employees",
      "outputs": [
        {
          "name": "id",
          "type": "uint256"
        },
        {
          "name": "username",
          "type": "string"
        },
        {
          "name": "fullName",
          "type": "string"
        },
        {
          "name": "location",
          "type": "string"
        }
      ],
      "payable": false,
      "stateMutability": "view",
      "type": "function"
    },
    {
      "constant": true,
      "inputs": [],
      "name": "employeeCount",
      "outputs": [
        {
          "name": "",
          "type": "uint256"
        }
      ],
      "payable": false,
      "stateMutability": "view",
      "type": "function"
    },
    {
      "inputs": [],
      "payable": false,
      "stateMutability": "nonpayable",
      "type": "constructor"
    }
  ],
  "bytecode": "0x608060405234801561001057600080fd5b506100c16040518060400160405280600881526020017f6a6f7963626576610000000000000000000000000000000000000000000000008152506040518060400160405280600b81526020017f426576616e204a6f7963650000000000000000000000000000000000000000008152506040518060400160405280600381526020017f43505400000000000000000000000000000000000000000000000000000000008152506100c660201b60201c565b61021d565b60016000815480929190600101919050555060405180608001604052806001548152602001848152602001838152602001828152506000806001548152602001908152602001600020600082015181600001556020820151816001019080519060200190610135929190610178565b506040820151816002019080519060200190610152929190610178565b50606082015181600301908051906020019061016f929190610178565b50905050505050565b828054600181600116156101000203166002900490600052602060002090601f016020900481019282601f106101b957805160ff19168380011785556101e7565b828001600101855582156101e7579182015b828111156101e65782518255916020019190600101906101cb565b5b5090506101f491906101f8565b5090565b61021a91905b808211156102165760008160009055506001016101fe565b5090565b90565b6104098061022c6000396000f3fe608060405234801561001057600080fd5b50600436106100365760003560e01c80634739326b1461003b5780639047bf58146101c1575b600080fd5b6100676004803603602081101561005157600080fd5b81019080803590602001909291905050506101df565b60405180858152602001806020018060200180602001848103845287818151815260200191508051906020019080838360005b838110156100b557808201518184015260208101905061009a565b50505050905090810190601f1680156100e25780820380516001836020036101000a031916815260200191505b50848103835286818151815260200191508051906020019080838360005b8381101561011b578082015181840152602081019050610100565b50505050905090810190601f1680156101485780820380516001836020036101000a031916815260200191505b50848103825285818151815260200191508051906020019080838360005b83811015610181578082015181840152602081019050610166565b50505050905090810190601f1680156101ae5780820380516001836020036101000a031916815260200191505b5097505050505050505060405180910390f35b6101c96103d7565b6040518082815260200191505060405180910390f35b6000602052806000526040600020600091509050806000015490806001018054600181600116156101000203166002900480601f0160208091040260200160405190810160405280929190818152602001828054600181600116156101000203166002900480156102915780601f1061026657610100808354040283529160200191610291565b820191906000526020600020905b81548152906001019060200180831161027457829003601f168201915b505050505090806002018054600181600116156101000203166002900480601f01602080910402602001604051908101604052809291908181526020018280546001816001161561010002031660029004801561032f5780601f106103045761010080835404028352916020019161032f565b820191906000526020600020905b81548152906001019060200180831161031257829003601f168201915b505050505090806003018054600181600116156101000203166002900480601f0160208091040260200160405190810160405280929190818152602001828054600181600116156101000203166002900480156103cd5780601f106103a2576101008083540402835291602001916103cd565b820191906000526020600020905b8154815290600101906020018083116103b057829003601f168201915b5050505050905084565b6001548156fea165627a7a7230582073548e4cb61864a444b95c16ed7eb59cfab89791614e668ad9074fbd35374ba50029",
  "source": "pragma solidity 0.5.8;\r\n\r\ncontract LeaveTool {\r\n\t// Employee model\r\n\r\n\tstruct Employee {\r\n\t\tuint id;\r\n\t\tstring username;\r\n\t\tstring fullName;\r\n\t\tstring location;\r\n\t}\r\n\r\n\t// Read/Write Employees\r\n\tmapping(uint => Employee) public employees;\r\n\r\n\t//Employee count\r\n\tuint public employeeCount;\r\n\r\n\tconstructor () public {\r\n\t\taddEmployee(\"joycbeva\", \"Bevan Joyce\", \"CPT\");\r\n\t}\r\n\r\n\tfunction addEmployee (string memory _username, string memory _fullName, string memory _location) private {\r\n\t\temployeeCount++;\r\n\t\temployees[employeeCount] = Employee(employeeCount, _username,_fullName, _location);\r\n\t}\r\n}",
  "sourcePath": "C:/Users/bevan/Desktop/eth/leavetool/contracts/LeaveTool.sol",
  "compiler": {
    "name": "solc",
    "version": "0.5.8+commit.23d335f2.Emscripten.clang"
  },
  "schemaVersion": "3.0.16",
  "updatedAt": "2019-10-11T06:35:32.877Z",
  "devdoc": {
    "methods": {}
  },
  "userdoc": {
    "methods": {}
  }
}