{
  "contractName": "LeaveTool",
  "abi": [
    {
      "constant": true,
      "inputs": [
        {
          "name": "",
          "type": "uint256"
        }
      ],
      "name": "employees",
      "outputs": [
        {
          "name": "id",
          "type": "uint256"
        },
        {
          "name": "username",
          "type": "string"
        },
        {
          "name": "fullname",
          "type": "string"
        },
        {
          "name": "location",
          "type": "string"
        },
        {
          "name": "leaveTotal",
          "type": "uint8"
        },
        {
          "name": "accountAddress",
          "type": "address"
        }
      ],
      "payable": false,
      "stateMutability": "view",
      "type": "function"
    },
    {
      "constant": true,
      "inputs": [],
      "name": "owner",
      "outputs": [
        {
          "name": "",
          "type": "address"
        }
      ],
      "payable": false,
      "stateMutability": "view",
      "type": "function"
    },
    {
      "constant": true,
      "inputs": [
        {
          "name": "",
          "type": "address"
        }
      ],
      "name": "managers",
      "outputs": [
        {
          "name": "",
          "type": "uint8"
        }
      ],
      "payable": false,
      "stateMutability": "view",
      "type": "function"
    },
    {
      "inputs": [],
      "payable": false,
      "stateMutability": "nonpayable",
      "type": "constructor"
    },
    {
      "constant": true,
      "inputs": [],
      "name": "getEmployeeCount",
      "outputs": [
        {
          "name": "",
          "type": "uint256"
        }
      ],
      "payable": false,
      "stateMutability": "view",
      "type": "function"
    },
    {
      "constant": true,
      "inputs": [
        {
          "name": "_id",
          "type": "uint256"
        }
      ],
      "name": "getEmployeeAddress",
      "outputs": [
        {
          "name": "",
          "type": "address"
        }
      ],
      "payable": false,
      "stateMutability": "view",
      "type": "function"
    },
    {
      "constant": true,
      "inputs": [
        {
          "name": "_id",
          "type": "uint256"
        }
      ],
      "name": "getEmployeeLeave",
      "outputs": [
        {
          "name": "",
          "type": "uint8"
        }
      ],
      "payable": false,
      "stateMutability": "view",
      "type": "function"
    },
    {
      "constant": true,
      "inputs": [],
      "name": "getPower",
      "outputs": [
        {
          "name": "",
          "type": "uint8"
        }
      ],
      "payable": false,
      "stateMutability": "view",
      "type": "function"
    },
    {
      "constant": false,
      "inputs": [
        {
          "name": "_power",
          "type": "uint8"
        }
      ],
      "name": "setPower",
      "outputs": [],
      "payable": false,
      "stateMutability": "nonpayable",
      "type": "function"
    },
    {
      "constant": false,
      "inputs": [
        {
          "name": "_leaveAmount",
          "type": "uint8"
        }
      ],
      "name": "setAllEmployeeLeave",
      "outputs": [],
      "payable": false,
      "stateMutability": "nonpayable",
      "type": "function"
    },
    {
      "constant": false,
      "inputs": [
        {
          "name": "_id",
          "type": "uint256"
        },
        {
          "name": "_address",
          "type": "address"
        }
      ],
      "name": "setEmployeeAddress",
      "outputs": [],
      "payable": false,
      "stateMutability": "nonpayable",
      "type": "function"
    },
    {
      "constant": false,
      "inputs": [
        {
          "name": "_id",
          "type": "uint256"
        },
        {
          "name": "_leaveAmount",
          "type": "uint8"
        }
      ],
      "name": "setEmployeeLeave",
      "outputs": [],
      "payable": false,
      "stateMutability": "nonpayable",
      "type": "function"
    },
    {
      "constant": false,
      "inputs": [
        {
          "name": "_id",
          "type": "uint256"
        },
        {
          "name": "_decreaseAmount",
          "type": "uint8"
        }
      ],
      "name": "decreaseEmployeeLeave",
      "outputs": [],
      "payable": false,
      "stateMutability": "nonpayable",
      "type": "function"
    }
  ],
  "bytecode": "0x60806040523480156200001157600080fd5b50336000806101000a81548173ffffffffffffffffffffffffffffffffffffffff021916908373ffffffffffffffffffffffffffffffffffffffff160217905550600a600060146101000a81548160ff021916908360ff1602179055506001600360003373ffffffffffffffffffffffffffffffffffffffff1673ffffffffffffffffffffffffffffffffffffffff16815260200190815260200160002060006101000a81548160ff021916908360ff160217905550620001796040518060400160405280600881526020017f6a6f7963626576610000000000000000000000000000000000000000000000008152506040518060400160405280600b81526020017f426576616e204a6f7963650000000000000000000000000000000000000000008152506040518060400160405280600381526020017f43505400000000000000000000000000000000000000000000000000000000008152506200023160201b60201c565b6200022b6040518060400160405280600781526020017f6b6172706d6172000000000000000000000000000000000000000000000000008152506040518060400160405280600981526020017f4d617263204b61727000000000000000000000000000000000000000000000008152506040518060400160405280600381526020017f43505400000000000000000000000000000000000000000000000000000000008152506200023160201b60201c565b62000428565b6001600081548092919060010191905055506040518060c001604052806001548152602001848152602001838152602001828152602001600560ff168152602001600173ffffffffffffffffffffffffffffffffffffffff16815250600260006001548152602001908152602001600020600082015181600001556020820151816001019080519060200190620002ca92919062000379565b506040820151816002019080519060200190620002e992919062000379565b5060608201518160030190805190602001906200030892919062000379565b5060808201518160040160006101000a81548160ff021916908360ff16021790555060a08201518160040160016101000a81548173ffffffffffffffffffffffffffffffffffffffff021916908373ffffffffffffffffffffffffffffffffffffffff160217905550905050505050565b828054600181600116156101000203166002900490600052602060002090601f016020900481019282601f10620003bc57805160ff1916838001178555620003ed565b82800160010185558215620003ed579182015b82811115620003ec578251825591602001919060010190620003cf565b5b509050620003fc919062000400565b5090565b6200042591905b808211156200042157600081600090555060010162000407565b5090565b90565b610e0e80620004386000396000f3fe608060405234801561001057600080fd5b50600436106100b45760003560e01c80636e37b5a5116100715780636e37b5a5146103885780638da5cb5b146103f65780638ee0199f1461044057806392f1b56e1461048e578063c2a63e3b146104c9578063fdff9b4d146104e7576100b4565b80632fe808fe146100b95780634739326b1461010157806349a4e50d146102c757806349d66eac146102eb5780635c22b6b61461031c57806365cac0681461034d575b600080fd5b6100e5600480360360208110156100cf57600080fd5b8101908080359060200190929190505050610545565b604051808260ff1660ff16815260200191505060405180910390f35b61012d6004803603602081101561011757600080fd5b8101908080359060200190929190505050610572565b604051808781526020018060200180602001806020018660ff1660ff1681526020018573ffffffffffffffffffffffffffffffffffffffff1673ffffffffffffffffffffffffffffffffffffffff168152602001848103845289818151815260200191508051906020019080838360005b838110156101b957808201518184015260208101905061019e565b50505050905090810190601f1680156101e65780820380516001836020036101000a031916815260200191505b50848103835288818151815260200191508051906020019080838360005b8381101561021f578082015181840152602081019050610204565b50505050905090810190601f16801561024c5780820380516001836020036101000a031916815260200191505b50848103825287818151815260200191508051906020019080838360005b8381101561028557808201518184015260208101905061026a565b50505050905090810190601f1680156102b25780820380516001836020036101000a031916815260200191505b50995050505050505050505060405180910390f35b6102cf6107a3565b604051808260ff1660ff16815260200191505060405180910390f35b61031a6004803603602081101561030157600080fd5b81019080803560ff1690602001909291905050506107b9565b005b61034b6004803603602081101561033257600080fd5b81019080803560ff1690602001909291905050506108da565b005b6103866004803603604081101561036357600080fd5b8101908080359060200190929190803560ff1690602001909291905050506109ba565b005b6103b46004803603602081101561039e57600080fd5b8101908080359060200190929190505050610ab2565b604051808273ffffffffffffffffffffffffffffffffffffffff1673ffffffffffffffffffffffffffffffffffffffff16815260200191505060405180910390f35b6103fe610af2565b604051808273ffffffffffffffffffffffffffffffffffffffff1673ffffffffffffffffffffffffffffffffffffffff16815260200191505060405180910390f35b61048c6004803603604081101561045657600080fd5b8101908080359060200190929190803573ffffffffffffffffffffffffffffffffffffffff169060200190929190505050610b17565b005b6104c7600480360360408110156104a457600080fd5b8101908080359060200190929190803560ff169060200190929190505050610c35565b005b6104d1610d9b565b6040518082815260200191505060405180910390f35b610529600480360360208110156104fd57600080fd5b81019080803573ffffffffffffffffffffffffffffffffffffffff169060200190929190505050610da5565b604051808260ff1660ff16815260200191505060405180910390f35b60006002600083815260200190815260200160002060040160009054906101000a900460ff169050919050565b6002602052806000526040600020600091509050806000015490806001018054600181600116156101000203166002900480601f0160208091040260200160405190810160405280929190818152602001828054600181600116156101000203166002900480156106245780601f106105f957610100808354040283529160200191610624565b820191906000526020600020905b81548152906001019060200180831161060757829003601f168201915b505050505090806002018054600181600116156101000203166002900480601f0160208091040260200160405190810160405280929190818152602001828054600181600116156101000203166002900480156106c25780601f10610697576101008083540402835291602001916106c2565b820191906000526020600020905b8154815290600101906020018083116106a557829003601f168201915b505050505090806003018054600181600116156101000203166002900480601f0160208091040260200160405190810160405280929190818152602001828054600181600116156101000203166002900480156107605780601f1061073557610100808354040283529160200191610760565b820191906000526020600020905b81548152906001019060200180831161074357829003601f168201915b5050505050908060040160009054906101000a900460ff16908060040160019054906101000a900473ffffffffffffffffffffffffffffffffffffffff16905086565b60008060149054906101000a900460ff16905090565b6000809054906101000a900473ffffffffffffffffffffffffffffffffffffffff1673ffffffffffffffffffffffffffffffffffffffff163373ffffffffffffffffffffffffffffffffffffffff161461087b576040517f08c379a000000000000000000000000000000000000000000000000000000000815260040180806020018281038252600c8152602001807f556e617574686f72697a6564000000000000000000000000000000000000000081525060200191505060405180910390fd5b60006001541161088a57600080fd5b6000600190505b60015481116108d657816002600083815260200190815260200160002060040160006101000a81548160ff021916908360ff1602179055508080600101915050610891565b5050565b6000809054906101000a900473ffffffffffffffffffffffffffffffffffffffff1673ffffffffffffffffffffffffffffffffffffffff163373ffffffffffffffffffffffffffffffffffffffff161461099c576040517f08c379a000000000000000000000000000000000000000000000000000000000815260040180806020018281038252600c8152602001807f556e617574686f72697a6564000000000000000000000000000000000000000081525060200191505060405180910390fd5b80600060146101000a81548160ff021916908360ff16021790555050565b6001600360003373ffffffffffffffffffffffffffffffffffffffff1673ffffffffffffffffffffffffffffffffffffffff16815260200190815260200160002060009054906101000a900460ff1660ff1614610a7f576040517f08c379a000000000000000000000000000000000000000000000000000000000815260040180806020018281038252600c8152602001807f556e617574686f72697a6564000000000000000000000000000000000000000081525060200191505060405180910390fd5b806002600084815260200190815260200160002060040160006101000a81548160ff021916908360ff1602179055505050565b60006002600083815260200190815260200160002060040160019054906101000a900473ffffffffffffffffffffffffffffffffffffffff169050919050565b6000809054906101000a900473ffffffffffffffffffffffffffffffffffffffff1681565b6001600360003373ffffffffffffffffffffffffffffffffffffffff1673ffffffffffffffffffffffffffffffffffffffff16815260200190815260200160002060009054906101000a900460ff1660ff1614610bdc576040517f08c379a000000000000000000000000000000000000000000000000000000000815260040180806020018281038252600c8152602001807f556e617574686f72697a6564000000000000000000000000000000000000000081525060200191505060405180910390fd5b806002600084815260200190815260200160002060040160016101000a81548173ffffffffffffffffffffffffffffffffffffffff021916908373ffffffffffffffffffffffffffffffffffffffff1602179055505050565b6001600360003373ffffffffffffffffffffffffffffffffffffffff1673ffffffffffffffffffffffffffffffffffffffff16815260200190815260200160002060009054906101000a900460ff1660ff1614610cfa576040517f08c379a000000000000000000000000000000000000000000000000000000000815260040180806020018281038252600c8152602001807f556e617574686f72697a6564000000000000000000000000000000000000000081525060200191505060405180910390fd5b8060ff166002600084815260200190815260200160002060040160009054906101000a900460ff1660ff161015610d3057600080fd5b610d69816002600085815260200190815260200160002060040160009054906101000a900460ff1660ff16610dc590919063ffffffff16565b6002600084815260200190815260200160002060040160006101000a81548160ff021916908360ff1602179055505050565b6000600154905090565b60036020528060005260406000206000915054906101000a900460ff1681565b60008260ff168260ff161115610dd757fe5b81830390509291505056fea165627a7a723058209afe3175b2838e95c637a216105328148f8257095f206432440c7402a2b255ff0029",
  "source": "pragma solidity ^0.5.8;\r\n//Practice safe math\r\nimport \"./SafeMath.sol\";\r\nimport \"./SafeMath8.sol\";\r\n\r\n//TODO - Implement Proxy contract once all functionality is implemented\r\ncontract LeaveTool {\r\n\r\n\tusing SafeMath8 for uint8;\r\n\tusing SafeMath for uint256;\r\n\r\n\taddress public owner;\r\n\tuint8 private power;\r\n\tuint private employeeCount;\r\n\r\n\tmapping(uint => Employee) public employees;\r\n\tmapping(address => uint8) public managers;\r\n\r\n\t// Employee model\r\n\tstruct Employee {\r\n\t\t//Look at using keccak256 hash instead of uint\r\n\t\tuint id;\r\n\t\tstring username;\r\n\t\tstring fullname;\r\n\t\tstring location;\r\n\t\tuint8 leaveTotal;\r\n\t\taddress accountAddress;\r\n\t}\r\n\r\n\t/*\r\n\t * Modifiers\r\n\t*/\r\n\r\n\tmodifier onlyOwner {\r\n\t\trequire(msg.sender == owner, \"Unauthorized\");\r\n\t\t_;\r\n\t}\r\n\r\n\tmodifier onlyManager {\r\n\t\trequire(managers[msg.sender] == 1, \"Unauthorized\");\r\n\t\t_;\r\n\t}\r\n\r\n\t/*\r\n\t * Constructor\r\n\t*/\r\n\r\n\tconstructor () public {\r\n\t\towner = msg.sender;\r\n\t\tpower = 10;\r\n\t\tmanagers[msg.sender] = 1;\r\n\r\n\t\taddEmployee(\"joycbeva\", \"Bevan Joyce\", \"CPT\");\r\n\t\taddEmployee(\"karpmar\", \"Marc Karp\", \"CPT\");\r\n\r\n\t}\r\n\r\n\t/*\r\n\t * Get Methods\r\n\t*/\r\n\r\n\tfunction getEmployeeCount() public view returns (uint) {\r\n\t\treturn employeeCount;\r\n\t}\r\n\r\n\tfunction getEmployeeAddress(uint _id) public view returns (address) {\r\n\t\t//Do some validation so it's not public\r\n\t\treturn employees[_id].accountAddress;\r\n\t}\r\n\r\n\tfunction getEmployeeLeave(uint _id) public view returns (uint8) {\r\n\t\treturn employees[_id].leaveTotal;\r\n\t}\r\n\r\n\tfunction getPower() public view returns (uint8) {\r\n\t\treturn power;\r\n\t}\r\n\r\n\t/*\r\n\t * Set Methods\r\n\t*/\r\n\r\n\tfunction setPower(uint8 _power) public onlyOwner {\r\n\t\tpower = _power;\r\n\t}\r\n\r\n\t//Can only be performed by the owner of the contract\r\n\tfunction setAllEmployeeLeave(uint8 _leaveAmount) public onlyOwner {\r\n\t\trequire(employeeCount > 0);\r\n\r\n\t\tfor(uint i=1; i <= employeeCount; i++){\r\n\t\t\temployees[i].leaveTotal = _leaveAmount;\r\n\t\t}\r\n\t}\r\n\r\n\tfunction setEmployeeAddress(uint _id, address _address) public onlyManager {\r\n\t\temployees[_id].accountAddress = _address;\r\n\t}\r\n\r\n\tfunction setEmployeeLeave(uint _id, uint8 _leaveAmount) public onlyManager {\r\n\t\temployees[_id].leaveTotal = _leaveAmount;\r\n\t}\r\n\t\r\n\r\n\tfunction decreaseEmployeeLeave(uint _id, uint8 _decreaseAmount) public onlyManager {\r\n\t\trequire(employees[_id].leaveTotal >= _decreaseAmount);\r\n\r\n\t\temployees[_id].leaveTotal = employees[_id].leaveTotal.sub(_decreaseAmount);\r\n\t}\r\n\r\n\tfunction addEmployee (string memory _username, string memory _fullname, string memory _location) private {\r\n\t\temployeeCount++;\r\n\t\temployees[employeeCount] = Employee(employeeCount, _username, _fullname, _location, 5, address(0x1));\r\n\t}\r\n}",
  "sourcePath": "C:/Users/bevan/Desktop/eth/leavetool/contracts/LeaveTool.sol",
  "compiler": {
    "name": "solc",
    "version": "0.5.8+commit.23d335f2.Emscripten.clang"
  },
  "schemaVersion": "3.0.16",
  "updatedAt": "2019-10-12T10:40:44.916Z",
  "devdoc": {
    "methods": {}
  },
  "userdoc": {
    "methods": {}
  }
}